:100000000C942A000C9424060C9451060C94340091
:100010000C9434000C9434000C9434000C94340090
:100020000C9434000C9434000C9434000C94340080
:100030000C9434000C9434000C9434000C94340070
:100040000C9434000C9434000C9434000C94340060
:100050000C94340011241FBECFE5D8E0DEBFCDBF25
:100060000E9417060C947E060C940000DF93CF9339
:10007000CDB7DEB728970FB6F894DEBF0FBECDBF61
:100080008A836B834C8319828B81883008F0F4C09B
:100090008C81882309F077C08A81282F30E0388747
:1000A0002F838F8198858130910559F12F81388573
:1000B000223031052CF48F819885009769F060C05B
:1000C0002F8138852230310589F18F8198858330E1
:1000D000910509F440C054C0AAE3B0E0EAE3F0E0BF
:1000E0008081482F8B81282F30E081E090E0022E24
:1000F00002C0880F991F0A94E2F7809584238C939D
:10010000BDC0A7E3B0E0E7E3F0E08081482F8B813A
:10011000282F30E081E090E0022E02C0880F991F66
:100120000A94E2F7809584238C93A8C0A4E3B0E0FE
:10013000E4E3F0E08081482F8B81282F30E081E0DC
:1001400090E0022E02C0880F991F0A94E2F7809572
:1001500084238C9393C0A1E3B0E0E1E3F0E08081DD
:10016000482F8B81282F30E081E090E0022E02C0E2
:10017000880F991F0A94E2F7809584238C937EC0A0
:1001800081E089837BC08C81813009F072C08A81D3
:10019000282F30E03E832D838D819E818130910513
:1001A00049F12D813E81223031052CF48D819E81D3
:1001B000009761F05BC02D813E812230310571F1E5
:1001C0008D819E8183309105E9F150C0AAE3B0E0B2
:1001D000EAE3F0E08081482F8B81282F30E081E036
:1001E00090E0022E02C0880F991F0A94E2F7842B38
:1001F0008C9344C0A7E3B0E0E7E3F0E08081482FB0
:100200008B81282F30E081E090E0022E02C0880F21
:10021000991F0A94E2F7842B8C9330C0A4E3B0E0DA
:10022000E4E3F0E08081482F8B81282F30E081E0EB
:1002300090E0022E02C0880F991F0A94E2F7842BE7
:100240008C931CC0A1E3B0E0E1E3F0E08081482F93
:100250008B81282F30E081E090E0022E02C0880FD1
:10026000991F0A94E2F7842B8C9308C081E089835C
:1002700005C081E0898302C081E089838981289655
:100280000FB6F894DEBF0FBECDBFCF91DF910895BA
:10029000DF93CF93CDB7DEB728970FB6F894DEBFC4
:1002A0000FBECDBF8A836B834C8319828B818830CC
:1002B00008F0F4C08C81882309F077C08A81282F48
:1002C00030E038872F838F8198858130910559F1EF
:1002D0002F813885223031052CF48F819885009745
:1002E00069F060C02F8138852230310589F18F8116
:1002F00098858330910509F440C054C0ABE3B0E069
:10030000EBE3F0E08081482F8B81282F30E081E003
:1003100090E0022E02C0880F991F0A94E2F78095A0
:1003200084238C93BDC0A8E3B0E0E8E3F0E08081D3
:10033000482F8B81282F30E081E090E0022E02C010
:10034000880F991F0A94E2F7809584238C93A8C0A4
:10035000A5E3B0E0E5E3F0E08081482F8B81282F12
:1003600030E081E090E0022E02C0880F991F0A94CD
:10037000E2F7809584238C9393C0A2E3B0E0E2E39C
:10038000F0E08081482F8B81282F30E081E090E0E1
:10039000022E02C0880F991F0A94E2F780958423E9
:1003A0008C937EC081E089837BC08C81813009F091
:1003B00072C08A81282F30E03E832D838D819E81FB
:1003C0008130910549F12D813E81223031052CF497
:1003D0008D819E81009761F05BC02D813E8122302E
:1003E000310571F18D819E8183309105E9F150C015
:1003F000ABE3B0E0EBE3F0E08081482F8B81282F66
:1004000030E081E090E0022E02C0880F991F0A942C
:10041000E2F7842B8C9344C0A8E3B0E0E8E3F0E07B
:100420008081482F8B81282F30E081E090E0022EE0
:1004300002C0880F991F0A94E2F7842B8C9330C076
:10044000A5E3B0E0E5E3F0E08081482F8B81282F21
:1004500030E081E090E0022E02C0880F991F0A94DC
:10046000E2F7842B8C931CC0A2E3B0E0E2E3F0E05F
:100470008081482F8B81282F30E081E090E0022E90
:1004800002C0880F991F0A94E2F7842B8C9308C04E
:1004900081E0898305C081E0898302C081E089838E
:1004A000898128960FB6F894DEBF0FBECDBFCF91DD
:1004B000DF910895DF93CF93CDB7DEB727970FB6BF
:1004C000F894DEBF0FBECDBF8A836B835D834C8300
:1004D00019828C819D81009709F47BC08B818830C3
:1004E00008F074C08A81282F30E03F832E834E812C
:1004F0005F814130510559F18E819F818230910594
:1005000034F42E813F812115310569F05CC04E81A4
:100510005F814230510579F18E819F818330910551
:1005200009F43DC050C0E9E3F0E08081282F30E0BD
:100530008B81882F90E0A90102C0559547958A9537
:10054000E2F7CA018170EC81FD81808344C0E6E35B
:10055000F0E08081282F30E08B81882F90E0A90186
:1005600002C0559547958A95E2F7CA018170EC81E2
:10057000FD81808330C0E3E3F0E08081282F30E00C
:100580008B81882F90E0A90102C0559547958A95E7
:10059000E2F7CA018170EC81FD8180831CC0E0E339
:1005A000F0E08081282F30E08B81882F90E0A90136
:1005B00002C0559547958A95E2F7CA018170EC8192
:1005C000FD81808308C081E0898305C081E0898343
:1005D00002C082E08983898127960FB6F894DEBF36
:1005E0000FBECDBFCF91DF910895DF93CF9300D0A1
:1005F00000D00F92CDB7DEB78A836B8319828A81D0
:10060000282F30E03D832C838C819D8181309105A2
:10061000D1F02C813D81223031052CF48C819D81DB
:10062000009761F01FC02C813D812230310581F09F
:100630008C819D818330910581F014C0EAE3F0E064
:100640008B81808311C0E7E3F0E08B8180830CC055
:10065000E4E3F0E08B81808307C0E1E3F0E08B818D
:10066000808302C081E0898389810F900F900F9071
:100670000F900F90CF91DF910895DF93CF9300D02B
:1006800000D00F92CDB7DEB78A836B8319828A813F
:10069000282F30E03D832C838C819D818130910512
:1006A000D1F02C813D81223031052CF48C819D814B
:1006B000009761F01FC02C813D812230310581F00F
:1006C0008C819D818330910581F014C0EBE3F0E0D3
:1006D0008B81808311C0E8E3F0E08B8180830CC0C4
:1006E000E5E3F0E08B81808307C0E2E3F0E08B81FB
:1006F000808302C081E0898389810F900F900F90E1
:100700000F900F90CF91DF910895DF93CF9300D09A
:1007100000D00F92CDB7DEB78A836B8319828B81AD
:10072000883008F072C08A81282F30E03D832C8306
:100730008C819D818130910549F12C813D81223050
:1007400031052CF48C819D81009761F05BC02C8178
:100750003D812230310571F18C819D81833091057D
:10076000E9F150C0ABE3B0E0EBE3F0E08081482F6B
:100770008B81282F30E081E090E0022E02C0880FAC
:10078000991F0A94E2F784278C9341C0A8E3B0E054
:10079000E8E3F0E08081482F8B81282F30E081E072
:1007A00090E0022E02C0880F991F0A94E2F7842776
:1007B0008C932DC0A5E3B0E0E5E3F0E08081482F05
:1007C0008B81282F30E081E090E0022E02C0880F5C
:1007D000991F0A94E2F784278C9319C0A2E3B0E032
:1007E000E2E3F0E08081482F8B81282F30E081E028
:1007F00090E0022E02C0880F991F0A94E2F7842726
:100800008C9305C081E0898302C081E0898389815E
:100810000F900F900F900F900F90CF91DF91089550
:10082000DF93CF93CDB7DEB7A5E5B0E0E5E5F0E027
:1008300080818E7F8C93A5E5B0E0E5E5F0E08081D6
:1008400082608C93ABE5B0E0EBE5F0E08081806402
:100850008C93CF91DF910895DF93CF93CDB7DEB71F
:10086000A5E5B0E0E5E5F0E080818B7F8C93A5E520
:10087000B0E0E5E5F0E0808188608C93ABE5B0E026
:10088000EBE5F0E0808180688C93CF91DF91089553
:10089000DF93CF93CDB7DEB7A4E5B0E0E4E5F0E0B9
:1008A00080818F7B8C93ABE5B0E0EBE5F0E080815D
:1008B00080628C93CF91DF910895DF93CF93CDB772
:1008C000DEB72B970FB6F894DEBF0FBECDBF8A837D
:1008D0006B8319828A81282F30E03B872A878A859B
:1008E0009B858130910509F46AC02A853B852230B9
:1008F000310509F4C3C08A859B85009709F0E1C0E2
:100900008B81282F30E03987288788859985823028
:10091000910529F1288539852330310534F48885FE
:1009200099858130910561F047C02885398523304C
:10093000310521F1888599858430910571F13CC09C
:10094000A5E5B0E0E5E5F0E080818E7F8C93A5E53C
:10095000B0E0E5E5F0E080818D7F8C93B4C0A5E543
:10096000B0E0E5E5F0E0808181608C93A5E5B0E042
:10097000E5E5F0E080818D7F8C93A5C0A5E5B0E032
:10098000E5E5F0E080818E7F8C93A5E5B0E0E5E5BC
:10099000F0E0808182608C9396C0A5E5B0E0E5E54B
:1009A000F0E0808181608C93A5E5B0E0E5E5F0E0C2
:1009B000808182608C9387C081E0898384C08B8131
:1009C000282F30E03F832E838E819F8182309105D6
:1009D00029F12E813F812330310534F48E819F81AE
:1009E0008130910561F047C02E813F812330310570
:1009F00021F18E819F818430910571F13CC0A5E584
:100A0000B0E0E5E5F0E080818B7F8C93A5E5B0E078
:100A1000E5E5F0E08081877F8C9355C0A5E5B0E0E7
:100A2000E5E5F0E0808184608C93A5E5B0E0E5E544
:100A3000F0E08081877F8C9346C0A5E5B0E0E5E5D6
:100A4000F0E080818B7F8C93A5E5B0E0E5E5F0E0F8
:100A5000808188608C9337C0A5E5B0E0E5E5F0E0E3
:100A6000808184608C93A5E5B0E0E5E5F0E08081CD
:100A700088608C9328C081E0898325C08B81282FD2
:100A800030E03D832C838C819D818330910531F052
:100A90002C813D812430310549F010C0A4E5B0E03F
:100AA000E4E5F0E080818F7B8C930DC0A4E5B0E09D
:100AB000E4E5F0E0808180648C9305C081E0898367
:100AC00002C081E0898389812B960FB6F894DEBF3E
:100AD0000FBECDBFCF91DF910895DF93CF9300D0AC
:100AE00000D0CDB7DEB78A8319828A81282F30E003
:100AF0003C832B838B819C818130910589F02B81F4
:100B00003C8122303105A1F08B819C810097C1F49A
:100B1000ABE5B0E0EBE5F0E0808180648C9312C03F
:100B2000ABE5B0E0EBE5F0E0808180688C930AC033
:100B3000ABE5B0E0EBE5F0E0808180628C9302C031
:100B400081E0898389810F900F900F900F90CF9152
:100B5000DF910895DF93CF9300D000D0CDB7DEB7FB
:100B60008A8319828A81282F30E03C832B838B81F2
:100B70009C818130910589F02B813C8122303105A7
:100B8000A1F08B819C810097C1F4ABE5B0E0EBE56F
:100B9000F0E080818F7B8C9312C0ABE5B0E0EBE599
:100BA000F0E080818F778C930AC0ABE5B0E0EBE595
:100BB000F0E080818F7D8C9302C081E08983898100
:100BC0000F900F900F900F90CF91DF910895DF93CA
:100BD000CF93CDB7DEB77894CF91DF910895DF93AF
:100BE000CF93CDB7DEB7F894CF91DF910895DF931F
:100BF000CF93CDB7DEB7EAE3F0E01082E7E3F0E0B1
:100C00001082E4E3F0E084E08083E1E3F0E010822E
:100C1000EBE3F0E01082E8E3F0E01082E5E3F0E0DF
:100C20001082E2E3F0E01082CF91DF910895DF932C
:100C3000CF93CDB7DEB70E94F7050E9410040E9443
:100C40002C040E94E705FFCF1F920F920FB60F9260
:100C500011242F933F934F935F936F937F938F93C1
:100C60009F93AF93BF93EF93FF93DF93CF93CDB752
:100C7000DEB782E062E041E00E944801CF91DF915F
:100C8000FF91EF91BF91AF919F918F917F916F9164
:100C90005F914F913F912F910F900FBE0F901F903A
:100CA00018951F920F920FB60F9211242F933F9316
:100CB0004F935F936F937F938F939F93AF93BF9364
:100CC000EF93FF93DF93CF93CDB7DEB782E062E07F
:100CD00040E00E944801CF91DF91FF91EF91BF91D9
:100CE000AF919F918F917F916F915F914F913F91C4
:100CF0002F910F900FBE0F901F901895F894FFCF73
:00000001FF
