:100000000C942A000C943F000C943F000C943F0089
:100010000C943F000C943F000C943F000C943F0064
:100020000C943F000C943F000C943F000C943F0054
:100030000C943F000C943F000C943F000C943F0044
:100040000C943F000C943F000C943F000C943F0034
:100050000C943F0011241FBECFE5D8E0DEBFCDBF1A
:1000600010E0A0E6B0E0ECEFF5E202C005900D92E2
:10007000A839B107D9F70E94260C0C94FC120C94F5
:100080000000EF92FF920F931F937B018C0120E001
:1000900030E040E05FE40E94410388238CF0C80117
:1000A000B70120E030E040E05FE40E94B9010E9427
:1000B000A1039B01AC01205030404040504806C095
:1000C000C801B7010E94A1039B01AC01B901CA019B
:1000D0001F910F91FF90EF900895A0E0B0E0E3E74B
:1000E000F0E00C94C512DC012B01FA019C919230D6
:1000F00008F439C1EB018881823008F433C19430AF
:1001000069F4843009F02FC111969C91119789816F
:10011000981709F428C1A0E6B0E025C1843009F49D
:1001200021C18230A9F4923009F01DC19A01AD01BC
:1001300088E0EA010990AE01E90109929E0181502F
:10014000C1F7E201898111969C918923818308C1BD
:10015000923009F407C112962D903C901397EB0151
:100160008A819B811496AD90BD90CD90DC901797BD
:10017000EC80FD800E811F819101281B390BB90194
:1001800037FF04C066277727621B730B6032710547
:100190000CF061C0121613066CF537014801062EEB
:1001A00004C096948794779467940A94D2F721E0D8
:1001B00030E040E050E004C0220F331F441F551FC1
:1001C0006A95D2F721503040404050402E213F21C7
:1001D00040235123211531054105510521F021E02E
:1001E00030E040E050E079018A01E628F72808294C
:1001F00019293CC0232BD1F1260E371E35014601AB
:10020000062E04C096948794779467940A94D2F744
:1002100021E030E040E050E004C0220F331F441FD3
:10022000551F6A95D2F721503040404050402A2156
:100230003B214C215D21211531054105510521F05E
:1002400021E030E040E050E059016A01A628B728DB
:10025000C828D9280BC0821593052CF01C01AA24AC
:10026000BB24650103C0EE24FF24870111969C91F5
:10027000D20111968C91981709F445C0992339F051
:10028000A80197012A193B094C095D0906C0A6017E
:1002900095012E193F09400B510B57FD08C01182E3
:1002A0003382228224833583468357831DC081E0B5
:1002B00081833382228288279927DC01821B930B5A
:1002C000A40BB50B84839583A683B7830DC0220F3F
:1002D000331F441F551F24833583468357838281F0
:1002E000938101979383828324813581468157814D
:1002F000DA01C9010197A109B1098F5F9F4FAF4F83
:10030000BF4328F30BC0918333822282EA0CFB1C8B
:100310000C1D1D1DE482F5820683178383E0808314
:10032000248135814681578157FF1AC0C901AA2708
:1003300097FDA095BA2F81709070A070B0705695FF
:10034000479537952795822B932BA42BB52B848328
:100350009583A683B7838281938101969383828359
:10036000DF0101C0D201CD01CDB7DEB7E2E10C94CF
:10037000E112A0E2B0E0EFEBF1E00C94D11269835E
:100380007A838B839C832D833E834F835887E9E058
:10039000EE2EF12CEC0EFD1ECE010196B7010E944F
:1003A000CA048E010F5E1F4FCE010596B8010E9450
:1003B000CA048A8991E089278A8BC701B801AE01F6
:1003C000475E5F4F0E946D000E94F503A096E6E035
:1003D0000C94ED12A0E2B0E0E0EFF1E00C94D11249
:1003E00069837A838B839C832D833E834F835887D5
:1003F000F9E0EF2EF12CEC0EFD1ECE010196B701B7
:100400000E94CA048E010F5E1F4FCE010596B801EF
:100410000E94CA04C701B801AE01475E5F4F0E9447
:100420006D000E94F503A096E6E00C94ED12A0E2A8
:10043000B0E0EDE1F2E00C94C51269837A838B831E
:100440009C832D833E834F835887CE010196BE0146
:10045000675F7F4F0E94CA04CE010596BE016F5EA2
:100460007F4F0E94CA049985923088F08989823032
:10047000C8F0943019F4823051F404C0843029F467
:10048000923081F480E690E0C6C0923049F420E0DA
:100490009A858A89981321E02A87CE010996BBC0E4
:1004A000823049F420E09A858A89981321E02A8BCA
:1004B000CE014196B0C02D843E844F8458886D880B
:1004C0007E888F88988CEE24FF248701AA24BB2481
:1004D000650140E050E060E070E0E0E0F0E0C10184
:1004E00081709070892BE9F0E60CF71C081D191D2E
:1004F0009A01AB012A0D3B1D4C1D5D1D80E090E073
:10050000A0E0B0E0E614F7040805190520F481E046
:1005100090E0A0E0B0E0BA01A901480F591F6A1F9E
:100520007B1FAA0CBB1CCC1CDD1C97FE08C081E005
:1005300090E0A0E0B0E0A82AB92ACA2ADB2A3196C6
:10054000E032F10549F0660C771C881C991C569422
:10055000479437942794C3CFFA85EA892B893C893D
:100560008B859C85280F391F2E5F3F4F17C0CA010E
:1005700081709070892B61F016950795F794E79438
:1005800080E090E0A0E0B0E8E82AF92A0A2B1B2BD3
:1005900076956795579547952F5F3F4F77FDE7CF46
:1005A0000CC0440F551F661F771F17FD4160EE0CEE
:1005B000FF1C001F111F21503040403090E05907B0
:1005C00090E0690790E4790760F32B8F3C8FDB01A3
:1005D000CA018F779070A070B07080349105A1052A
:1005E000B10561F447FD0AC0E114F10401051105EC
:1005F00029F0405C5F4F6F4F7F4F40781A8EFE1797
:1006000011F081E08A8F4D8F5E8F6F8F78A383E02A
:10061000898FCE0149960E94F503A096E2E10C94E1
:10062000E112A8E1B0E0E7E1F3E00C94D1126983B4
:100630007A838B839C832D833E834F83588789E005
:10064000E82EF12CEC0EFD1ECE010196B7010E94A2
:10065000CA048E010F5E1F4FCE010596B8010E949D
:10066000CA048985823040F08989823028F0C70128
:10067000B8010E94420501C08FEF6896E6E00C9435
:10068000ED12A8E1B0E0E7E4F3E00C94D112698345
:100690007A838B839C832D833E834F83588789E0A5
:1006A000E82EF12CEC0EFD1ECE010196B7010E9442
:1006B000CA048E010F5E1F4FCE010596B8010E943D
:1006C000CA048985823040F08989823028F0C701C8
:1006D000B8010E94420501C08FEF6896E6E00C94D5
:1006E000ED12A8E1B0E0E7E7F3E00C94D1126983E2
:1006F0007A838B839C832D833E834F83588789E045
:10070000E82EF12CEC0EFD1ECE010196B7010E94E1
:10071000CA048E010F5E1F4FCE010596B8010E94DC
:10072000CA048985823040F08989823028F0C70167
:10073000B8010E94420501C081E06896E6E00C9491
:10074000ED12ACE0B0E0E7EAF3E00C94D512698377
:100750007A838B839C83CE010196BE016B5F7F4FB2
:100760000E94CA048D81823061F1823050F1843060
:1007700021F48E81882351F12EC02F81388537FDD9
:1007800020C06E812F3131051CF06623F9F023C0A3
:100790008EE190E0821B930B29853A854B855C8521
:1007A00004C056954795379527958A95D2F76623C5
:1007B000B1F050954095309521953F4F4F4F5F4F89
:1007C0000EC020E030E040E050E009C02FEF3FEFE6
:1007D0004FEF5FE704C020E030E040E050E8B901AF
:1007E000CA012C96E2E00C94F112DF92EF92FF9294
:1007F0000F931F93FC01E480F58006811781D1805F
:100800008081823048F480E090E0A0E1B0E0E82A06
:10081000F92A0A2B1B2BA5C0843009F49FC0823013
:1008200021F4EE24FF24870105C0E114F104010541
:10083000110519F4E0E0F0E096C0628173819FEF4A
:10084000623879070CF05BC022E83FEF261B370BBC
:100850002A3131052CF020E030E040E050E02AC0A1
:10086000B801A701022E04C0769567955795479564
:100870000A94D2F781E090E0A0E0B0E004C0880FD5
:10088000991FAA1FBB1F2A95D2F70197A109B10989
:100890008E219F21A023B1230097A105B10521F04E
:1008A00081E090E0A0E0B0E09A01AB01282B392B69
:1008B0004A2B5B2BDA01C9018F779070A070B07062
:1008C00080349105A105B10539F427FF09C0205CEA
:1008D0003F4F4F4F5F4F04C0215C3F4F4F4F5F4F23
:1008E000E0E0F0E02030A0E03A07A0E04A07A0E412
:1008F0005A0710F0E1E0F0E079018A0127C0603882
:10090000710564F5FB01E158FF4FD801C7018F77EE
:100910009070A070B07080349105A105B10539F4D4
:10092000E7FE0DC080E490E0A0E0B0E004C08FE3FB
:1009300090E0A0E0B0E0E80EF91E0A1F1B1F17FFB1
:1009400005C016950795F794E794319687E01695BC
:100950000795F794E7948A95D1F705C0EE24FF2414
:100960008701EFEFF0E06E2F679566276795902F70
:100970009F77D794DD24D7948E2F8695492F462BC9
:10098000582F5D29B701CA011F910F91FF90EF9079
:10099000DF900895FC01DB01408151812281622FAB
:1009A0006F7770E0221F2227221F9381892F880FE3
:1009B000822B282F30E0991F9927991F11969C931D
:1009C000119721153105A9F54115510561057105ED
:1009D00011F482E037C082E89FEF13969C938E93C8
:1009E00012979A01AB0167E0220F331F441F551F76
:1009F0006A95D1F783E08C930DC0220F331F441FFB
:100A0000551F12968D919C911397019713969C9365
:100A10008E931297203080E0380780E0480780E40A
:100A2000580758F314962D933D934D935C93179765
:100A300008952F3F310579F4411551056105710580
:100A400019F484E08C93089564FF03C081E08C93D3
:100A500012C01C9210C02F57304013963C932E9317
:100A6000129783E08C9387E0440F551F661F771F12
:100A70008A95D1F7706414964D935D936D937C9332
:100A8000179708951F93DC01FB019C91923008F4A5
:100A900047C08081823008F443C0943051F41196ED
:100AA0001C91843099F58181682F70E0611B710978
:100AB0003FC0843021F0923031F48230B9F181812D
:100AC000882389F12DC011961C9111978230F1F085
:100AD00081811817D9F412962D913C911397828138
:100AE00093818217930794F028173907BCF0149666
:100AF0008D919D910D90BC91A02D248135814681D1
:100B00005781281739074A075B0718F4112341F06A
:100B10000AC082179307A407B50740F4112319F000
:100B200061E070E005C06FEF7FEF02C060E070E051
:100B3000CB011F910895DF93CF93CDB7DEB72E97EA
:100B40000FB6F894DEBF0FBECDBF80E062E041E09B
:100B50000E945E0980E090E0A0E0B0E48B879C8773
:100B6000AD87BE876B857C858D859E8520E030E0D6
:100B70004AE755E40E941702DC01CB018F83988776
:100B8000A987BA876F81788589859A8520E030E0CA
:100B900040E85FE30E94710388232CF481E090E039
:100BA0009E838D833FC06F81788589859A8520E0FB
:100BB0003FEF4FE757E40E94110318164CF56B8581
:100BC0007C858D859E8520E030E040E251E40E94E6
:100BD0001702DC01CB01BC01CD010E944100DC0108
:100BE000CB019E838D830FC080E991E09C838B8332
:100BF0008B819C810197F1F79C838B838D819E81F2
:100C000001979E838D838D819E81009769F714C023
:100C10006F81788589859A850E944100DC01CB012E
:100C20009E838D838D819E819A83898389819A8118
:100C30000197F1F79A83898380E062E040E00E94A7
:100C40005E092E960FB6F894DEBF0FBECDBFCF91D2
:100C5000DF910895DF93CF930F92CDB7DEB78983ED
:100C60008981982F917080E063E0492F0E945E098E
:100C700089818695982F917080E064E0492F0E94C9
:100C80005E09898186958695982F917080E065E050
:100C9000492F0E945E098981869586958695982FB1
:100CA000917080E066E0492F0E945E090F90CF911D
:100CB000DF910895DF93CF930F92CDB7DEB789838D
:100CC00080E061E040E00E945E09898182958F703A
:100CD0000E942A060E949B0589810E942A060E9482
:100CE0009B050F90CF91DF910895DF93CF930F92E3
:100CF000CDB7DEB7898380E061E041E00E945E0904
:100D0000898182958F700E942A060E949B058981A5
:100D10000E942A060E949B050F90CF91DF910895B3
:100D2000DF93CF93CDB7DEB72E970FB6F894DEBF23
:100D30000FBECDBF80E090E0A0E2B2E48B879C873D
:100D4000AD87BE876B857C858D859E8520E030E0F4
:100D50004AE755E40E941702DC01CB018F83988794
:100D6000A987BA876F81788589859A8520E030E0E8
:100D700040E85FE30E94710388232CF481E090E057
:100D80009E838D833FC06F81788589859A8520E019
:100D90003FEF4FE757E40E94110318164CF56B859F
:100DA0007C858D859E8520E030E040E251E40E9404
:100DB0001702DC01CB01BC01CD010E944100DC0126
:100DC000CB019E838D830FC080E991E09C838B8350
:100DD0008B819C810197F1F79C838B838D819E8110
:100DE00001979E838D838D819E81009769F714C042
:100DF0006F81788589859A850E944100DC01CB014D
:100E00009E838D838D819E819A83898389819A8136
:100E10000197F1F79A83898382E00E942A060E9453
:100E20009B0582E00E942A060E949B0588E00E94A2
:100E30002A060E949B058CE00E945A0681E00E94CF
:100E40005A062E960FB6F894DEBF0FBECDBFCF91D7
:100E5000DF910895DF93CF9300D000D0CDB7DEB7F8
:100E60009C838B831A828B819C810097E1F019828D
:100E70000EC08981282F30E08B819C81FC01E20F1C
:100E8000F31F80810E94750689818F5F8983898124
:100E9000282F30E08B819C81FC01E20FF31F8081C1
:100EA000882339F702C081E08A838A810F900F90EE
:100EB0000F900F90CF91DF910895DF93CF93CDB72F
:100EC000DEB761970FB6F894DEBF0FBECDBF6E8759
:100ED0007F87888B998B1A828E859F85A889B9898F
:100EE0000097A105B10521F480E30E94750669C051
:100EF0008E859F85A889B989BB230CF043C08DE2FC
:100F00000E9475068E859F85A889B989B095A095A0
:100F1000909581959F4FAF4FBF4F8E879F87A88B2E
:100F2000B98B30C08E859F85A889B9892AE030E0C9
:100F300040E050E0BC01CD010E947412DC01CB0105
:100F40008B838E859F85A889B9892AE030E040E0AF
:100F500050E0BC01CD010E947412DA01C9018E87F4
:100F60009F87A88BB98B8A81282F30E08B81482FEF
:100F7000405DCE010496FC01E20FF31F40838A819D
:100F80008F5F8A838E859F85A889B9890097A1057F
:100F9000B10541F68A818150898310C08981282F4B
:100FA000332727FD3095CE010496FC01E20FF31F95
:100FB00080810E9475068981815089838981882377
:100FC0006CF761960FB6F894DEBF0FBECDBFCF9120
:100FD000DF910895DF93CF9300D00F92CDB7DEB7A6
:100FE0008A836B838B81882319F48A81898306C065
:100FF0008B81813019F48A81805C89838981806842
:10100000898389810E945A060F900F900F90CF918B
:10101000DF910895DF93CF93CDB7DEB727970FB653
:10102000F894DEBF0FBECDBF9C838B836D834E8350
:101030002F838D81882F90E0880F991F880F991F2B
:10104000880F991F898389818064898389810E949F
:101050005A061A820EC08A81282F30E08B819C812B
:10106000FC01E20FF31F80810E9475068A818F5F69
:101070008A838A81883078F38E816F810E94EA07A3
:101080008D810E94750627960FB6F894DEBF0FBEBD
:10109000CDBFCF91DF910895DF93CF93CDB7DEB76A
:1010A00028970FB6F894DEBF0FBECDBF8A836B833F
:1010B0004C8319828B81883008F0F4C08C8188239E
:1010C00009F077C08A81282F30E038872F838F81FD
:1010D00098858130910559F12F813885223031056D
:1010E0002CF48F819885009769F060C02F81388536
:1010F0002230310589F18F8198858330910509F47B
:1011000040C054C0AAE3B0E0EAE3F0E08081482F99
:101110008B81282F30E081E090E0022E02C0880F02
:10112000991F0A94E2F7809584238C93BDC0A7E3AE
:10113000B0E0E7E3F0E08081482F8B81282F30E09A
:1011400081E090E0022E02C0880F991F0A94E2F716
:10115000809584238C93A8C0A4E3B0E0E4E3F0E09E
:101160008081482F8B81282F30E081E090E0022E93
:1011700002C0880F991F0A94E2F7809584238C930C
:1011800093C0A1E3B0E0E1E3F0E08081482F8B81E0
:10119000282F30E081E090E0022E02C0880F991FD6
:1011A0000A94E2F7809584238C937EC081E0898342
:1011B0007BC08C81813009F072C08A81282F30E099
:1011C0003E832D838D819E818130910549F12D8152
:1011D0003E81223031052CF48D819E81009761F093
:1011E0005BC02D813E812230310571F18D819E8160
:1011F00083309105E9F150C0AAE3B0E0EAE3F0E002
:101200008081482F8B81282F30E081E090E0022EF2
:1012100002C0880F991F0A94E2F7842B8C9344C074
:10122000A7E3B0E0E7E3F0E08081482F8B81282F2F
:1012300030E081E090E0022E02C0880F991F0A94EE
:10124000E2F7842B8C9330C0A4E3B0E0E4E3F0E059
:101250008081482F8B81282F30E081E090E0022EA2
:1012600002C0880F991F0A94E2F7842B8C931CC04C
:10127000A1E3B0E0E1E3F0E08081482F8B81282FEB
:1012800030E081E090E0022E02C0880F991F0A949E
:10129000E2F7842B8C9308C081E0898305C081E04C
:1012A000898302C081E08983898128960FB6F894EA
:1012B000DEBF0FBECDBFCF91DF910895DF93CF93F7
:1012C000CDB7DEB728970FB6F894DEBF0FBECDBFFF
:1012D0008A836B834C8319828B81883008F0F4C039
:1012E0008C81882309F077C08A81282F30E03887E5
:1012F0002F838F8198858130910559F12F81388511
:10130000223031052CF48F819885009769F060C0F8
:101310002F8138852230310589F18F81988583307E
:10132000910509F440C054C0ABE3B0E0EBE3F0E05A
:101330008081482F8B81282F30E081E090E0022EC1
:1013400002C0880F991F0A94E2F7809584238C933A
:10135000BDC0A8E3B0E0E8E3F0E08081482F8B81D6
:10136000282F30E081E090E0022E02C0880F991F04
:101370000A94E2F7809584238C93A8C0A5E3B0E09B
:10138000E5E3F0E08081482F8B81282F30E081E079
:1013900090E0022E02C0880F991F0A94E2F7809510
:1013A00084238C9393C0A2E3B0E0E2E3F0E0808179
:1013B000482F8B81282F30E081E090E0022E02C080
:1013C000880F991F0A94E2F7809584238C937EC03E
:1013D00081E089837BC08C81813009F072C08A8171
:1013E000282F30E03E832D838D819E8181309105B1
:1013F00049F12D813E81223031052CF48D819E8171
:10140000009761F05BC02D813E812230310571F182
:101410008D819E8183309105E9F150C0ABE3B0E04E
:10142000EBE3F0E08081482F8B81282F30E081E0D2
:1014300090E0022E02C0880F991F0A94E2F7842BD5
:101440008C9344C0A8E3B0E0E8E3F0E08081482F4B
:101450008B81282F30E081E090E0022E02C0880FBF
:10146000991F0A94E2F7842B8C9330C0A5E3B0E077
:10147000E5E3F0E08081482F8B81282F30E081E088
:1014800090E0022E02C0880F991F0A94E2F7842B85
:101490008C931CC0A2E3B0E0E2E3F0E08081482F2F
:1014A0008B81282F30E081E090E0022E02C0880F6F
:1014B000991F0A94E2F7842B8C9308C081E08983FA
:1014C00005C081E0898302C081E0898389812896F3
:1014D0000FB6F894DEBF0FBECDBFCF91DF91089558
:1014E000DF93CF93CDB7DEB727970FB6F894DEBF63
:1014F0000FBECDBF8A836B835D834C8319828C8141
:101500009D81009709F47BC08B81883008F074C0FE
:101510008A81282F30E03F832E834E815F814130C6
:10152000510559F18E819F818230910534F42E81CD
:101530003F812115310569F05CC04E815F814230E9
:10154000510579F18E819F818330910509F43DC069
:1015500050C0E9E3F0E08081282F30E08B81882FB4
:1015600090E0A90102C0559547958A95E2F7CA0116
:101570008170EC81FD81808344C0E6E3F0E08081EE
:10158000282F30E08B81882F90E0A90102C055956B
:1015900047958A95E2F7CA018170EC81FD818083CD
:1015A00030C0E3E3F0E08081282F30E08B81882F8A
:1015B00090E0A90102C0559547958A95E2F7CA01C6
:1015C0008170EC81FD8180831CC0E0E3F0E08081CC
:1015D000282F30E08B81882F90E0A90102C055951B
:1015E00047958A95E2F7CA018170EC81FD8180837D
:1015F00008C081E0898305C081E0898302C082E060
:101600008983898127960FB6F894DEBF0FBECDBFC0
:10161000CF91DF910895DF93CF9300D000D00F9248
:10162000CDB7DEB78A836B8319828A81282F30E099
:101630003D832C838C819D8181309105D1F02C815B
:101640003D81223031052CF48C819D81009761F021
:101650001FC02C813D812230310581F08C819D811C
:101660008330910581F014C0EAE3F0E08B81808340
:1016700011C0E7E3F0E08B8180830CC0E4E3F0E08D
:101680008B81808307C0E1E3F0E08B81808302C01F
:1016900081E0898389810F900F900F900F900F90B8
:1016A000CF91DF910895DF93CF9300D000D00F92B8
:1016B000CDB7DEB78A836B8319828A81282F30E009
:1016C0003D832C838C819D8181309105D1F02C81CB
:1016D0003D81223031052CF48C819D81009761F091
:1016E0001FC02C813D812230310581F08C819D818C
:1016F0008330910581F014C0EBE3F0E08B818083AF
:1017000011C0E8E3F0E08B8180830CC0E5E3F0E0FA
:101710008B81808307C0E2E3F0E08B81808302C08D
:1017200081E0898389810F900F900F900F900F9027
:10173000CF91DF910895DF93CF9300D000D00F9227
:10174000CDB7DEB78A836B8319828B81883008F02E
:1017500072C08A81282F30E03D832C838C819D814B
:101760008130910549F12C813D81223031052CF4E5
:101770008C819D81009761F05BC02C813D8122307E
:10178000310571F18C819D8183309105E9F150C063
:10179000ABE3B0E0EBE3F0E08081482F8B81282FB2
:1017A00030E081E090E0022E02C0880F991F0A9479
:1017B000E2F784278C9341C0A8E3B0E0E8E3F0E0CF
:1017C0008081482F8B81282F30E081E090E0022E2D
:1017D00002C0880F991F0A94E2F784278C932DC0CA
:1017E000A5E3B0E0E5E3F0E08081482F8B81282F6E
:1017F00030E081E090E0022E02C0880F991F0A9429
:10180000E2F784278C9319C0A2E3B0E0E2E3F0E0B2
:101810008081482F8B81282F30E081E090E0022EDC
:1018200002C0880F991F0A94E2F784278C9305C0A1
:1018300081E0898302C081E0898389810F900F90C4
:101840000F900F900F90CF91DF910895DF93CF937A
:10185000CDB7DEB7C459D0400FB6F894DEBF0FBE87
:10186000CDBF80E061E041E00E944C0880E062E092
:1018700041E00E944C0880E063E041E00E944C0897
:1018800080E064E041E00E944C0880E065E041E0D7
:101890000E944C0880E066E041E00E944C080E94F3
:1018A000900683E062E040E00E944C0883E063E041
:1018B00040E00E944C0883E064E040E00E944C0855
:1018C00080E060E00E94EA0761E070E080E090E084
:1018D0000E945D079E012C5C3F4FE9963FAF2EAF03
:1018E000E99780E990E0EB969FAF8EAFEB9798E099
:1018F000EC969FAFEC97EB96AEADBFADEB970C902F
:10190000EB96EEADFFADEB973196EB96FFAFEEAFFA
:10191000EB97E996AEADBFADE9970C92E996EEADC7
:10192000FFADE9973196E996FFAFEEAFE997EC96F8
:10193000FFADEC97F150EC96FFAFEC97EC962FAD26
:10194000EC972223C1F688E0FE01FC96DF01282FE8
:101950001D922A95E9F78FE18FAFCE018C5B9F4FE7
:10196000EE969FAF8EAFEE9788E890E0C258DF4FBB
:1019700099838883CE57D04098E0C058DF4F988332
:10198000C058D040C258DF4FA881B981CE57D0404F
:101990000C90C258DF4FE881F981CE57D040319684
:1019A000C258DF4FF983E883CE57D040EE96AEADF4
:1019B000BFADEE970C92EE96EEADFFADEE97319681
:1019C000EE96FFAFEEAFEE97C058DF4FF881C058EC
:1019D000D040F150C058DF4FF883C058D040C058B5
:1019E000DF4F2881C058D040222361F6CE01845BAE
:1019F0009F4FCF57DF4F99838883C158D04080E8ED
:101A000090E0CD57DF4F99838883C358D04098E04A
:101A1000CB57DF4F9883C558D040CD57DF4FA881B3
:101A2000B981C358D0400C90CD57DF4FE881F98180
:101A3000C358D0403196CD57DF4FF983E883C35860
:101A4000D040CF57DF4FA881B981C158D0400C9208
:101A5000CF57DF4FE881F981C158D0403196CF5739
:101A6000DF4FF983E883C158D040CB57DF4FF8816F
:101A7000C558D040F150CB57DF4FF883C558D04000
:101A8000CB57DF4F2881C558D040222331F6CE01F5
:101A90008C5A9F4FCA57DF4F99838883C658D040CE
:101AA00088E790E0C857DF4F99838883C858D040B3
:101AB00098E0C657DF4F9883CA58D040C857DF4FC9
:101AC000A881B981C858D0400C90C857DF4FE88131
:101AD000F981C858D0403196C857DF4FF983E88361
:101AE000C858D040CA57DF4FA881B981C658D040E6
:101AF0000C92CA57DF4FE881F981C658D040319621
:101B0000CA57DF4FF983E883C658D040C657DF4F26
:101B1000F881CA58D040F150C657DF4FF883CA58F1
:101B2000D040C657DF4F2881CA58D040222331F613
:101B3000CE01845A9F4FC557DF4F99838883CB5876
:101B4000D04080E790E0C357DF4F99838883CD581A
:101B5000D04098E0C157DF4F9883CF58D040C3574B
:101B6000DF4FA881B981CD58D0400C90C357DF4FCB
:101B7000E881F981CD58D0403196C357DF4FF983C2
:101B8000E883CD58D040C557DF4FA881B981CB58E5
:101B9000D0400C92C557DF4FE881F981CB58D04037
:101BA0003196C557DF4FF983E883CB58D040C157F2
:101BB000DF4FF881CF58D040F150C157DF4FF88345
:101BC000CF58D040C157DF4F2881CF58D040222373
:101BD00031F6CE01C49660E041E020E00E940A08A0
:101BE00082E060E00E94EA0761E070E080E090E05F
:101BF0000E945D07CE018C599F4FC057DF4F9983DC
:101C00008883C059D04088E690E0CE56DF4F998354
:101C10008883C259D04098E0CC56DF4F9883C4598E
:101C2000D040CE56DF4FA881B981C259D0400C9028
:101C3000CE56DF4FE881F981C259D0403196CE5659
:101C4000DF4FF983E883C259D040C057DF4FA881E6
:101C5000B981C059D0400C92C057DF4FE881F9815B
:101C6000C059D0403196C057DF4FF983E883C0593F
:101C7000D040CC56DF4FF881C459D040F150CC56FB
:101C8000DF4FF883C459D040CC56DF4F2881C45968
:101C9000D040222331F6CE018C599F4F65E040E0C1
:101CA00021E00E940A0881E08BAB81E08AAB19AA8F
:101CB00081E088AB9E0124593F4F83E062E0A90197
:101CC0000E94700AFE01E459FF4F8081882309F0C9
:101CD000A1C08EA5813009F09DC089A98823B1F4E7
:101CE0008BA98F5F8BAB8BA98A300CF01BAA80E08D
:101CF00060E00E94EA078BA9992787FD9095A92F9C
:101D0000B92FBC01CD010E945D0784C089A9823032
:101D1000E1F48AA98F5F8AAB8AA98A303CF088A94E
:101D2000833019F481E08AAB01C01AAA82E060E036
:101D30000E94EA078AA9992787FD9095A92FB92FB4
:101D4000BC01CD010E945D0765C089A9813009F001
:101D500061C088A98F5F88AB88A985301CF081E0BD
:101D600088AB09C088A9833031F48AA9882319F483
:101D700088A98F5F88AB88A9A82FBB27A7FDB0953E
:101D8000E796BFAFAEAFE797E796EEADFFADE7974B
:101D9000E230F10531F1E7962EAD3FADE797233004
:101DA000310544F4E7968EAD9FADE79781309105FC
:101DB00081F030C0E796AEADBFADE797A330B10577
:101DC000C9F0E796EEADFFADE797E430F105D9F045
:101DD00021C0CE01C49660E041E020E00E940A08E4
:101DE00019C0CE01845B9F4F62E041E020E00E9479
:101DF0000A0810C0CE018C5B9F4F63E041E020E0F9
:101E00000E940A0807C0CE01CC9664E041E020E0C1
:101E10000E940A08FE01E459FF4F80818EA780E0EE
:101E200090E0A0E8BFE38FA398A7A9A7BAA76FA1E6
:101E300078A589A59AA520E030E04AE755E40E94FC
:101E40001702DC01CB018BA39CA3ADA3BEA36BA1A6
:101E50007CA18DA19EA120E030E040E85FE30E94DC
:101E6000710388232CF481E090E09AA389A33FC0FA
:101E70006BA17CA18DA19EA120E03FEF4FE757E42D
:101E80000E94110318164CF56FA178A589A59AA593
:101E900020E030E040E251E40E941702DC01CB0177
:101EA000BC01CD010E944100DC01CB019AA389A3B2
:101EB0000FC080E991E098A38F8F8F8D98A1019733
:101EC000F1F798A38F8F89A19AA101979AA389A36B
:101ED00089A19AA1009769F714C06BA17CA18DA17B
:101EE0009EA10E944100DC01CB019AA389A389A194
:101EF0009AA19E8F8D8F8D8D9E8D0197F1F79E8F6C
:101F00008D8F9E0123593F4F83E063E0A9010E941A
:101F1000700AFE01E359FF4F8081882309F029C12F
:101F20008DA5813009F025C189A98F5F89AB89A969
:101F3000843008F019AA81E00E945A0680E060E02F
:101F40000E94EA078BA9992787FD9095A92FB92FA1
:101F5000BC01CD010E945D07CE018C599F4F65E009
:101F600049A921E00E940A0888A9282F332727FDC4
:101F70003095E5963FAF2EAFE597E5968EAD9FADD8
:101F8000E5978230910531F1E596AEADBFADE597AD
:101F9000A330B10544F4E596EEADFFADE597E13031
:101FA000F10581F030C0E5962EAD3FADE5972330C9
:101FB0003105C9F0E5968EAD9FADE597843091056A
:101FC000D9F021C0CE01C49660E041E020E00E943B
:101FD0000A0819C0CE01845B9F4F62E041E020E017
:101FE0000E940A0810C0CE018C5B9F4F63E041E065
:101FF00020E00E940A0807C0CE01CC9664E041E0D0
:1020000020E00E940A0882E060E00E94EA078AA9B4
:10201000992787FD9095A92FB92FBC01CD010E946A
:102020005D0789A9833009F0A4C0CE018C5A9F4F67
:1020300066E043E020E00E940A0884E060E00E943D
:10204000EA0788A9A82FBB27A7FDB095E396BFAFE5
:10205000AEAFE397E396EEADFFADE397E230F10567
:1020600019F1E3962EAD3FADE3972330310544F4EB
:10207000E3968EAD9FADE3978130910581F030C03E
:10208000E396AEADBFADE397A330B105A1F0E39603
:10209000EEADFFADE397E430F105F1F021C08BA97F
:1020A0009AA9890F8FA71CC08BA99AA9899F802DF7
:1020B00011248FA715C08BA9482F552747FD509590
:1020C0008AA9282F332727FD3095CA01B9010E941C
:1020D0006112CB018FA704C08BA99AA9891B8FA776
:1020E0008BA9482F552747FD50958AA9282F3327BC
:1020F00027FD3095CA01B9010E9461129C0184E656
:1021000090E0289FA001299F500D389F500D112469
:102110008AA9282F332727FD3095CA01B9010E94CB
:102120006112CB018BA78FA5992787FD9095A92FC9
:10213000B92FBC01CD010E945D0788A98330C9F485
:1021400085E060E00E94EA07CE01845A9F4F67E075
:1021500045E020E00E940A0886E060E00E94EA076D
:102160008BA5882F90E0A0E0B0E0BC01CD010E94DB
:102170005D07FE01E359FF4F80818DA780E090E06D
:10218000A0E8BFE3898F9A8FAB8FBC8F698D7A8D62
:102190008B8D9C8D20E030E04AE755E40E941702C9
:1021A000DC01CB018D8B9E8BAF8BB88F6D897E89C7
:1021B0008F89988D20E030E040E85FE30E94710352
:1021C00088232CF481E090E09C8B8B8B3FC06D8941
:1021D0007E898F89988D20E03FEF4FE757E40E947A
:1021E000110318164CF5698D7A8D8B8D9C8D20E02E
:1021F00030E040E251E40E941702DC01CB01BC0157
:10220000CD010E944100DC01CB019C8B8B8B0FC068
:1022100080E991E09A8B898B89899A890197F1F7F6
:102220009A8B898B8B899C8901979C8B8B8B8B8953
:102230009C89009769F714C06D897E898F89988D74
:102240000E944100DC01CB019C8B8B8B8B899C898C
:10225000988B8F878F8598890197F1F7988B8F8757
:102260009E0122593F4F83E064E0A9010E94700A59
:10227000FE01E259FF4F8081882309F0AAC08CA596
:10228000813009F0A6C089A98823B9F48BA98150AF
:102290008BAB8BA9882314F489E08BAB80E060E0E2
:1022A0000E94EA078BA9992787FD9095A92FB92F3E
:1022B000BC01CD010E945D078CC089A9823001F567
:1022C0008AA981508AAB88A9833031F48AA918166B
:1022D0001CF089E08AAB05C08AA9882314F489E040
:1022E0008AAB82E060E00E94EA078AA9992787FD0D
:1022F0009095A92FB92FBC01CD010E945D0769C03F
:1023000089A9813009F065C088A9815088AB88A966
:1023100018161CF084E088AB09C088A9833031F41A
:102320008AA9882319F488A9815088AB81E060E0EC
:102330000E94EA0788A9282F332727FD3095E196C8
:102340003FAF2EAFE197E1968EAD9FADE197823022
:10235000910531F1E196AEADBFADE197A330B10586
:1023600044F4E196EEADFFADE197E130F10581F087
:1023700030C0E1962EAD3FADE19723303105C9F075
:10238000E1968EAD9FADE19784309105D9F021C0E3
:10239000CE01C49660E041E020E00E940A0819C026
:1023A000CE01845B9F4F62E041E020E00E940A087A
:1023B00010C0CE018C5B9F4F63E041E020E00E94A3
:1023C0000A0807C0CE01CC9664E041E020E00E94FC
:1023D0000A08FE01E259FF4F80818CA780E090E05F
:1023E000A0E8BFE38B879C87AD87BE876B857C8524
:1023F0008D859E8520E030E04AE755E40E94170273
:10240000DC01CB018F839887A987BA876F81788594
:1024100089859A8520E030E040E85FE30E947103FF
:1024200088232CF481E090E09E838D833FC06F81F0
:10243000788589859A8520E03FEF4FE757E40E9431
:10244000110318164CF56B857C858D859E8520E0E3
:1024500030E040E251E40E941702DC01CB01BC01F4
:10246000CD010E944100DC01CB019E838D830FC012
:1024700080E991E09C838B838B819C810197F1F7AC
:102480009C838B838D819E8101979E838D838D811B
:102490009E81009769F70ECC6F81788589859A8532
:1024A0000E944100DC01CB019E838D838D819E8142
:1024B0009A83898389819A810197F1F79A83898325
:1024C000F9CB97FB092E07260AD077FD04D027D039
:1024D00006D000201AF4709561957F4F0895F6F7A5
:1024E000909581959F4F089597FB092E05260ED054
:1024F00057FD04D028D00AD0001C38F450954095E0
:10250000309521953F4F4F4F5F4F0895F6F79095C7
:102510008095709561957F4F8F4F9F4F0895AA1BAF
:10252000BB1B51E107C0AA1FBB1FA617B70710F0BE
:10253000A61BB70B881F991F5A95A9F780959095F0
:10254000BC01CD010895A1E21A2EAA1BBB1BFD01FF
:102550000DC0AA1FBB1FEE1FFF1FA217B307E40782
:10256000F50720F0A21BB30BE40BF50B661F771FDA
:10257000881F991F1A9469F76095709580959095BA
:102580009B01AC01BD01CF0108952F923F924F9264
:102590005F926F927F928F929F92AF92BF92CF92F3
:1025A000DF92EF92FF920F931F93CF93DF93CDB7FC
:1025B000DEB7CA1BDB0B0FB6F894DEBF0FBECDBF74
:1025C00009942A88398848885F846E847D848C8445
:1025D0009B84AA84B984C884DF80EE80FD800C814E
:1025E0001B81AA81B981CE0FD11D0FB6F894DEBF31
:0C25F0000FBECDBFED010895F894FFCFA1
:1025FC000000000000000000040E15040404040098
:10260C00000000000E0E0E0000001F001F00000056
:10261C0000110A1F0A11000000010204081000003A
:08262C000004041F0404000077
:00000001FF
