:100000000C942A000C943F000C943F000C943F0089
:100010000C943F000C943F000C943F000C943F0064
:100020000C943F000C943F000C943F000C943F0054
:100030000C943F000C943F000C943F000C943F0044
:100040000C943F000C943F000C943F000C943F0034
:100050000C943F0011241FBECFE5D8E0DEBFCDBF1A
:1000600011E0A0E6B0E0ECE1FEE202C005900D92E6
:10007000A030B107D9F70E94460C0C940C170C94D1
:100080000000EF92FF920F931F937B018C0120E001
:1000900030E040E05FE40E94410388238CF0C80117
:1000A000B70120E030E040E05FE40E94B9010E9427
:1000B000A1039B01AC01205030404040504806C095
:1000C000C801B7010E94A1039B01AC01B901CA019B
:1000D0001F910F91FF90EF900895A0E0B0E0E3E74B
:1000E000F0E00C94D516DC012B01FA019C919230C2
:1000F00008F439C1EB018881823008F433C19430AF
:1001000069F4843009F02FC111969C91119789816F
:10011000981709F428C1A8EBB0E025C1843009F490
:1001200021C18230A9F4923009F01DC19A01AD01BC
:1001300088E0EA010990AE01E90109929E0181502F
:10014000C1F7E201898111969C918923818308C1BD
:10015000923009F407C112962D903C901397EB0151
:100160008A819B811496AD90BD90CD90DC901797BD
:10017000EC80FD800E811F819101281B390BB90194
:1001800037FF04C066277727621B730B6032710547
:100190000CF061C0121613066CF537014801062EEB
:1001A00004C096948794779467940A94D2F721E0D8
:1001B00030E040E050E004C0220F331F441F551FC1
:1001C0006A95D2F721503040404050402E213F21C7
:1001D00040235123211531054105510521F021E02E
:1001E00030E040E050E079018A01E628F72808294C
:1001F00019293CC0232BD1F1260E371E35014601AB
:10020000062E04C096948794779467940A94D2F744
:1002100021E030E040E050E004C0220F331F441FD3
:10022000551F6A95D2F721503040404050402A2156
:100230003B214C215D21211531054105510521F05E
:1002400021E030E040E050E059016A01A628B728DB
:10025000C828D9280BC0821593052CF01C01AA24AC
:10026000BB24650103C0EE24FF24870111969C91F5
:10027000D20111968C91981709F445C0992339F051
:10028000A80197012A193B094C095D0906C0A6017E
:1002900095012E193F09400B510B57FD08C01182E3
:1002A0003382228224833583468357831DC081E0B5
:1002B00081833382228288279927DC01821B930B5A
:1002C000A40BB50B84839583A683B7830DC0220F3F
:1002D000331F441F551F24833583468357838281F0
:1002E000938101979383828324813581468157814D
:1002F000DA01C9010197A109B1098F5F9F4FAF4F83
:10030000BF4328F30BC0918333822282EA0CFB1C8B
:100310000C1D1D1DE482F5820683178383E0808314
:10032000248135814681578157FF1AC0C901AA2708
:1003300097FDA095BA2F81709070A070B0705695FF
:10034000479537952795822B932BA42BB52B848328
:100350009583A683B7838281938101969383828359
:10036000DF0101C0D201CD01CDB7DEB7E2E10C94CF
:10037000F116A0E2B0E0EFEBF1E00C94E116698336
:100380007A838B839C832D833E834F835887E9E058
:10039000EE2EF12CEC0EFD1ECE010196B7010E944F
:1003A000CA048E010F5E1F4FCE010596B8010E9450
:1003B000CA048A8991E089278A8BC701B801AE01F6
:1003C000475E5F4F0E946D000E94F503A096E6E035
:1003D0000C94FD16A0E2B0E0E0EFF1E00C94E11621
:1003E00069837A838B839C832D833E834F835887D5
:1003F000F9E0EF2EF12CEC0EFD1ECE010196B701B7
:100400000E94CA048E010F5E1F4FCE010596B801EF
:100410000E94CA04C701B801AE01475E5F4F0E9447
:100420006D000E94F503A096E6E00C94FD16A0E294
:10043000B0E0EDE1F2E00C94D51669837A838B830A
:100440009C832D833E834F835887CE010196BE0146
:10045000675F7F4F0E94CA04CE010596BE016F5EA2
:100460007F4F0E94CA049985923088F08989823032
:10047000C8F0943019F4823051F404C0843029F467
:10048000923081F488EB90E0C6C0923049F420E0CD
:100490009A858A89981321E02A87CE010996BBC0E4
:1004A000823049F420E09A858A89981321E02A8BCA
:1004B000CE014196B0C02D843E844F8458886D880B
:1004C0007E888F88988CEE24FF248701AA24BB2481
:1004D000650140E050E060E070E0E0E0F0E0C10184
:1004E00081709070892BE9F0E60CF71C081D191D2E
:1004F0009A01AB012A0D3B1D4C1D5D1D80E090E073
:10050000A0E0B0E0E614F7040805190520F481E046
:1005100090E0A0E0B0E0BA01A901480F591F6A1F9E
:100520007B1FAA0CBB1CCC1CDD1C97FE08C081E005
:1005300090E0A0E0B0E0A82AB92ACA2ADB2A3196C6
:10054000E032F10549F0660C771C881C991C569422
:10055000479437942794C3CFFA85EA892B893C893D
:100560008B859C85280F391F2E5F3F4F17C0CA010E
:1005700081709070892B61F016950795F794E79438
:1005800080E090E0A0E0B0E8E82AF92A0A2B1B2BD3
:1005900076956795579547952F5F3F4F77FDE7CF46
:1005A0000CC0440F551F661F771F17FD4160EE0CEE
:1005B000FF1C001F111F21503040403090E05907B0
:1005C00090E0690790E4790760F32B8F3C8FDB01A3
:1005D000CA018F779070A070B07080349105A1052A
:1005E000B10561F447FD0AC0E114F10401051105EC
:1005F00029F0405C5F4F6F4F7F4F40781A8EFE1797
:1006000011F081E08A8F4D8F5E8F6F8F78A383E02A
:10061000898FCE0149960E94F503A096E2E10C94E1
:10062000F116A8E1B0E0E7E1F3E00C94E11669838C
:100630007A838B839C832D833E834F83588789E005
:10064000E82EF12CEC0EFD1ECE010196B7010E94A2
:10065000CA048E010F5E1F4FCE010596B8010E949D
:10066000CA048985823040F08989823028F0C70128
:10067000B8010E94420501C08FEF6896E6E00C9435
:10068000FD16A8E1B0E0E7E4F3E00C94E11669831D
:100690007A838B839C832D833E834F83588789E0A5
:1006A000E82EF12CEC0EFD1ECE010196B7010E9442
:1006B000CA048E010F5E1F4FCE010596B8010E943D
:1006C000CA048985823040F08989823028F0C701C8
:1006D000B8010E94420501C08FEF6896E6E00C94D5
:1006E000FD16A8E1B0E0E7E7F3E00C94E1166983BA
:1006F0007A838B839C832D833E834F83588789E045
:10070000E82EF12CEC0EFD1ECE010196B7010E94E1
:10071000CA048E010F5E1F4FCE010596B8010E94DC
:10072000CA048985823040F08989823028F0C70167
:10073000B8010E94420501C081E06896E6E00C9491
:10074000FD16ACE0B0E0E7EAF3E00C94E51669834F
:100750007A838B839C83CE010196BE016B5F7F4FB2
:100760000E94CA048D81823061F1823050F1843060
:1007700021F48E81882351F12EC02F81388537FDD9
:1007800020C06E812F3131051CF06623F9F023C0A3
:100790008EE190E0821B930B29853A854B855C8521
:1007A00004C056954795379527958A95D2F76623C5
:1007B000B1F050954095309521953F4F4F4F5F4F89
:1007C0000EC020E030E040E050E009C02FEF3FEFE6
:1007D0004FEF5FE704C020E030E040E050E8B901AF
:1007E000CA012C96E2E00C940117DF92EF92FF927F
:1007F0000F931F93FC01E480F58006811781D1805F
:100800008081823048F480E090E0A0E1B0E0E82A06
:10081000F92A0A2B1B2BA5C0843009F49FC0823013
:1008200021F4EE24FF24870105C0E114F104010541
:10083000110519F4E0E0F0E096C0628173819FEF4A
:10084000623879070CF05BC022E83FEF261B370BBC
:100850002A3131052CF020E030E040E050E02AC0A1
:10086000B801A701022E04C0769567955795479564
:100870000A94D2F781E090E0A0E0B0E004C0880FD5
:10088000991FAA1FBB1F2A95D2F70197A109B10989
:100890008E219F21A023B1230097A105B10521F04E
:1008A00081E090E0A0E0B0E09A01AB01282B392B69
:1008B0004A2B5B2BDA01C9018F779070A070B07062
:1008C00080349105A105B10539F427FF09C0205CEA
:1008D0003F4F4F4F5F4F04C0215C3F4F4F4F5F4F23
:1008E000E0E0F0E02030A0E03A07A0E04A07A0E412
:1008F0005A0710F0E1E0F0E079018A0127C0603882
:10090000710564F5FB01E158FF4FD801C7018F77EE
:100910009070A070B07080349105A105B10539F4D4
:10092000E7FE0DC080E490E0A0E0B0E004C08FE3FB
:1009300090E0A0E0B0E0E80EF91E0A1F1B1F17FFB1
:1009400005C016950795F794E794319687E01695BC
:100950000795F794E7948A95D1F705C0EE24FF2414
:100960008701EFEFF0E06E2F679566276795902F70
:100970009F77D794DD24D7948E2F8695492F462BC9
:10098000582F5D29B701CA011F910F91FF90EF9079
:10099000DF900895FC01DB01408151812281622FAB
:1009A0006F7770E0221F2227221F9381892F880FE3
:1009B000822B282F30E0991F9927991F11969C931D
:1009C000119721153105A9F54115510561057105ED
:1009D00011F482E037C082E89FEF13969C938E93C8
:1009E00012979A01AB0167E0220F331F441F551F76
:1009F0006A95D1F783E08C930DC0220F331F441FFB
:100A0000551F12968D919C911397019713969C9365
:100A10008E931297203080E0380780E0480780E40A
:100A2000580758F314962D933D934D935C93179765
:100A300008952F3F310579F4411551056105710580
:100A400019F484E08C93089564FF03C081E08C93D3
:100A500012C01C9210C02F57304013963C932E9317
:100A6000129783E08C9387E0440F551F661F771F12
:100A70008A95D1F7706414964D935D936D937C9332
:100A8000179708951F93DC01FB019C91923008F4A5
:100A900047C08081823008F443C0943051F41196ED
:100AA0001C91843099F58181682F70E0611B710978
:100AB0003FC0843021F0923031F48230B9F181812D
:100AC000882389F12DC011961C9111978230F1F085
:100AD00081811817D9F412962D913C911397828138
:100AE00093818217930794F028173907BCF0149666
:100AF0008D919D910D90BC91A02D248135814681D1
:100B00005781281739074A075B0718F4112341F06A
:100B10000AC082179307A407B50740F4112319F000
:100B200061E070E005C06FEF7FEF02C060E070E051
:100B3000CB011F910895DF93CF93CDB7DEB72E97EA
:100B40000FB6F894DEBF0FBECDBF80E062E041E09B
:100B50000E945E0980E090E0A0E0B0E48B879C8773
:100B6000AD87BE876B857C858D859E8520E030E0D6
:100B70004AE755E40E941702DC01CB018F83988776
:100B8000A987BA876F81788589859A8520E030E0CA
:100B900040E85FE30E94710388232CF481E090E039
:100BA0009E838D833FC06F81788589859A8520E0FB
:100BB0003FEF4FE757E40E94110318164CF56B8581
:100BC0007C858D859E8520E030E040E251E40E94E6
:100BD0001702DC01CB01BC01CD010E944100DC0108
:100BE000CB019E838D830FC080E991E09C838B8332
:100BF0008B819C810197F1F79C838B838D819E81F2
:100C000001979E838D838D819E81009769F714C023
:100C10006F81788589859A850E944100DC01CB012E
:100C20009E838D838D819E819A83898389819A8118
:100C30000197F1F79A83898380E062E040E00E94A7
:100C40005E092E960FB6F894DEBF0FBECDBFCF91D2
:100C5000DF910895DF93CF930F92CDB7DEB78983ED
:100C60008981982F917080E063E0492F0E945E098E
:100C700089818695982F917080E064E0492F0E94C9
:100C80005E09898186958695982F917080E065E050
:100C9000492F0E945E098981869586958695982FB1
:100CA000917080E066E0492F0E945E090F90CF911D
:100CB000DF910895DF93CF930F92CDB7DEB789838D
:100CC00080E061E040E00E945E09898182958F703A
:100CD0000E942A060E949B0589810E942A060E9482
:100CE0009B050F90CF91DF910895DF93CF930F92E3
:100CF000CDB7DEB7898380E061E041E00E945E0904
:100D0000898182958F700E942A060E949B058981A5
:100D10000E942A060E949B050F90CF91DF910895B3
:100D2000DF93CF93CDB7DEB72E970FB6F894DEBF23
:100D30000FBECDBF80E090E0A0E2B2E48B879C873D
:100D4000AD87BE876B857C858D859E8520E030E0F4
:100D50004AE755E40E941702DC01CB018F83988794
:100D6000A987BA876F81788589859A8520E030E0E8
:100D700040E85FE30E94710388232CF481E090E057
:100D80009E838D833FC06F81788589859A8520E019
:100D90003FEF4FE757E40E94110318164CF56B859F
:100DA0007C858D859E8520E030E040E251E40E9404
:100DB0001702DC01CB01BC01CD010E944100DC0126
:100DC000CB019E838D830FC080E991E09C838B8350
:100DD0008B819C810197F1F79C838B838D819E8110
:100DE00001979E838D838D819E81009769F714C042
:100DF0006F81788589859A850E944100DC01CB014D
:100E00009E838D838D819E819A83898389819A8136
:100E10000197F1F79A83898382E00E942A060E9453
:100E20009B0582E00E942A060E949B0588E00E94A2
:100E30002A060E949B058CE00E945A0681E00E94CF
:100E40005A062E960FB6F894DEBF0FBECDBFCF91D7
:100E5000DF910895DF93CF9300D000D0CDB7DEB7F8
:100E60009C838B831A828B819C810097E1F019828D
:100E70000EC08981282F30E08B819C81FC01E20F1C
:100E8000F31F80810E94750689818F5F8983898124
:100E9000282F30E08B819C81FC01E20FF31F8081C1
:100EA000882339F702C082E08A838A810F900F90ED
:100EB0000F900F90CF91DF910895DF93CF93CDB72F
:100EC000DEB761970FB6F894DEBF0FBECDBF6E8759
:100ED0007F87888B998B1A828E859F85A889B9898F
:100EE0000097A105B10521F480E30E94750669C051
:100EF0008E859F85A889B989BB230CF043C08DE2FC
:100F00000E9475068E859F85A889B989B095A095A0
:100F1000909581959F4FAF4FBF4F8E879F87A88B2E
:100F2000B98B30C08E859F85A889B9892AE030E0C9
:100F300040E050E0BC01CD010E949816DC01CB01DD
:100F40008B838E859F85A889B9892AE030E040E0AF
:100F500050E0BC01CD010E949816DA01C9018E87CC
:100F60009F87A88BB98B8A81282F30E08B81482FEF
:100F7000405DCE010496FC01E20FF31F40838A819D
:100F80008F5F8A838E859F85A889B9890097A1057F
:100F9000B10541F68A818150898310C08981282F4B
:100FA000332727FD3095CE010496FC01E20FF31F95
:100FB00080810E9475068981815089838981882377
:100FC0006CF761960FB6F894DEBF0FBECDBFCF9120
:100FD000DF910895DF93CF9300D00F92CDB7DEB7A6
:100FE0008A836B838B81882319F48A81898306C065
:100FF0008B81813019F48A81805C89838981806842
:10100000898389810E945A060F900F900F90CF918B
:10101000DF910895DF93CF93CDB7DEB727970FB653
:10102000F894DEBF0FBECDBF9C838B836D834E8350
:101030002F838D81882F90E0880F991F880F991F2B
:10104000880F991F8A838A8180648A838A810E949B
:101050005A0619820EC08981282F30E08B819C812D
:10106000FC01E20FF31F80810E94750689818F5F6A
:1010700089838981883078F38E816F810E94EA07A5
:101080008D810E94750627960FB6F894DEBF0FBEBD
:10109000CDBFCF91DF910895DF93CF93CDB7DEB76A
:1010A00028970FB6F894DEBF0FBECDBF8A836B833F
:1010B0004C8319828B81883008F0F4C08C8188239E
:1010C00009F077C08A81282F30E038872F838F81FD
:1010D00098858130910559F12F813885223031056D
:1010E0002CF48F819885009769F060C02F81388536
:1010F0002230310589F18F8198858330910509F47B
:1011000040C054C0AAE3B0E0EAE3F0E08081482F99
:101110008B81282F30E081E090E0022E02C0880F02
:10112000991F0A94E2F7809584238C93BDC0A7E3AE
:10113000B0E0E7E3F0E08081482F8B81282F30E09A
:1011400081E090E0022E02C0880F991F0A94E2F716
:10115000809584238C93A8C0A4E3B0E0E4E3F0E09E
:101160008081482F8B81282F30E081E090E0022E93
:1011700002C0880F991F0A94E2F7809584238C930C
:1011800093C0A1E3B0E0E1E3F0E08081482F8B81E0
:10119000282F30E081E090E0022E02C0880F991FD6
:1011A0000A94E2F7809584238C937EC081E0898342
:1011B0007BC08C81813009F072C08A81282F30E099
:1011C0003E832D838D819E818130910549F12D8152
:1011D0003E81223031052CF48D819E81009761F093
:1011E0005BC02D813E812230310571F18D819E8160
:1011F00083309105E9F150C0AAE3B0E0EAE3F0E002
:101200008081482F8B81282F30E081E090E0022EF2
:1012100002C0880F991F0A94E2F7842B8C9344C074
:10122000A7E3B0E0E7E3F0E08081482F8B81282F2F
:1012300030E081E090E0022E02C0880F991F0A94EE
:10124000E2F7842B8C9330C0A4E3B0E0E4E3F0E059
:101250008081482F8B81282F30E081E090E0022EA2
:1012600002C0880F991F0A94E2F7842B8C931CC04C
:10127000A1E3B0E0E1E3F0E08081482F8B81282FEB
:1012800030E081E090E0022E02C0880F991F0A949E
:10129000E2F7842B8C9308C081E0898305C081E04C
:1012A000898302C081E08983898128960FB6F894EA
:1012B000DEBF0FBECDBFCF91DF910895DF93CF93F7
:1012C000CDB7DEB728970FB6F894DEBF0FBECDBFFF
:1012D0008A836B834C8319828B81883008F0F4C039
:1012E0008C81882309F077C08A81282F30E03887E5
:1012F0002F838F8198858130910559F12F81388511
:10130000223031052CF48F819885009769F060C0F8
:101310002F8138852230310589F18F81988583307E
:10132000910509F440C054C0ABE3B0E0EBE3F0E05A
:101330008081482F8B81282F30E081E090E0022EC1
:1013400002C0880F991F0A94E2F7809584238C933A
:10135000BDC0A8E3B0E0E8E3F0E08081482F8B81D6
:10136000282F30E081E090E0022E02C0880F991F04
:101370000A94E2F7809584238C93A8C0A5E3B0E09B
:10138000E5E3F0E08081482F8B81282F30E081E079
:1013900090E0022E02C0880F991F0A94E2F7809510
:1013A00084238C9393C0A2E3B0E0E2E3F0E0808179
:1013B000482F8B81282F30E081E090E0022E02C080
:1013C000880F991F0A94E2F7809584238C937EC03E
:1013D00081E089837BC08C81813009F072C08A8171
:1013E000282F30E03E832D838D819E8181309105B1
:1013F00049F12D813E81223031052CF48D819E8171
:10140000009761F05BC02D813E812230310571F182
:101410008D819E8183309105E9F150C0ABE3B0E04E
:10142000EBE3F0E08081482F8B81282F30E081E0D2
:1014300090E0022E02C0880F991F0A94E2F7842BD5
:101440008C9344C0A8E3B0E0E8E3F0E08081482F4B
:101450008B81282F30E081E090E0022E02C0880FBF
:10146000991F0A94E2F7842B8C9330C0A5E3B0E077
:10147000E5E3F0E08081482F8B81282F30E081E088
:1014800090E0022E02C0880F991F0A94E2F7842B85
:101490008C931CC0A2E3B0E0E2E3F0E08081482F2F
:1014A0008B81282F30E081E090E0022E02C0880F6F
:1014B000991F0A94E2F7842B8C9308C081E08983FA
:1014C00005C081E0898302C081E0898389812896F3
:1014D0000FB6F894DEBF0FBECDBFCF91DF91089558
:1014E000DF93CF93CDB7DEB727970FB6F894DEBF63
:1014F0000FBECDBF8A836B835D834C8319828C8141
:101500009D81009709F47BC08B81883008F074C0FE
:101510008A81282F30E03F832E834E815F814130C6
:10152000510559F18E819F818230910534F42E81CD
:101530003F812115310569F05CC04E815F814230E9
:10154000510579F18E819F818330910509F43DC069
:1015500050C0E9E3F0E08081282F30E08B81882FB4
:1015600090E0A90102C0559547958A95E2F7CA0116
:101570008170EC81FD81808344C0E6E3F0E08081EE
:10158000282F30E08B81882F90E0A90102C055956B
:1015900047958A95E2F7CA018170EC81FD818083CD
:1015A00030C0E3E3F0E08081282F30E08B81882F8A
:1015B00090E0A90102C0559547958A95E2F7CA01C6
:1015C0008170EC81FD8180831CC0E0E3F0E08081CC
:1015D000282F30E08B81882F90E0A90102C055951B
:1015E00047958A95E2F7CA018170EC81FD8180837D
:1015F00008C081E0898305C081E0898302C082E060
:101600008983898127960FB6F894DEBF0FBECDBFC0
:10161000CF91DF910895DF93CF9300D000D00F9248
:10162000CDB7DEB78A836B8319828A81282F30E099
:101630003D832C838C819D8181309105D1F02C815B
:101640003D81223031052CF48C819D81009761F021
:101650001FC02C813D812230310581F08C819D811C
:101660008330910581F014C0EAE3F0E08B81808340
:1016700011C0E7E3F0E08B8180830CC0E4E3F0E08D
:101680008B81808307C0E1E3F0E08B81808302C01F
:1016900081E0898389810F900F900F900F900F90B8
:1016A000CF91DF910895DF93CF9300D000D00F92B8
:1016B000CDB7DEB78A836B8319828A81282F30E009
:1016C0003D832C838C819D8181309105D1F02C81CB
:1016D0003D81223031052CF48C819D81009761F091
:1016E0001FC02C813D812230310581F08C819D818C
:1016F0008330910581F014C0EBE3F0E08B818083AF
:1017000011C0E8E3F0E08B8180830CC0E5E3F0E0FA
:101710008B81808307C0E2E3F0E08B81808302C08D
:1017200081E0898389810F900F900F900F900F9027
:10173000CF91DF910895DF93CF9300D000D00F9227
:10174000CDB7DEB78A836B8319828B81883008F02E
:1017500072C08A81282F30E03D832C838C819D814B
:101760008130910549F12C813D81223031052CF4E5
:101770008C819D81009761F05BC02C813D8122307E
:10178000310571F18C819D8183309105E9F150C063
:10179000ABE3B0E0EBE3F0E08081482F8B81282FB2
:1017A00030E081E090E0022E02C0880F991F0A9479
:1017B000E2F784278C9341C0A8E3B0E0E8E3F0E0CF
:1017C0008081482F8B81282F30E081E090E0022E2D
:1017D00002C0880F991F0A94E2F784278C932DC0CA
:1017E000A5E3B0E0E5E3F0E08081482F8B81282F6E
:1017F00030E081E090E0022E02C0880F991F0A9429
:10180000E2F784278C9319C0A2E3B0E0E2E3F0E0B2
:101810008081482F8B81282F30E081E090E0022EDC
:1018200002C0880F991F0A94E2F784278C9305C0A1
:1018300081E0898302C081E0898389810F900F90C4
:101840000F900F900F90CF91DF910895DF93CF937A
:10185000CDB7DEB7EAE3F0E08EE78083E7E3F0E0C0
:101860001082E4E3F0E01082E1E3F0E01082EBE3C9
:10187000F0E01082E8E3F0E01082E5E3F0E01082AF
:10188000E2E3F0E01082CF91DF9108950F931F9370
:10189000DF93CF93CDB7DEB7C55FD0400FB6F894D6
:1018A000DEBF0FBECDBFCE0182579F4FC253DF4F69
:1018B00099838883CE5CD04088EF90E0C053DF4F9F
:1018C00099838883C05DD04098E0CE52DF4F9883E3
:1018D000C25DD040C053DF4FE881F981C05DD04088
:1018E0000080C053DF4F88819981C05DD040019650
:1018F000C053DF4F99838883C05DD040C253DF4F10
:10190000E881F981CE5CD0400082C253DF4F8881EC
:101910009981CE5CD0400196C253DF4F9983888372
:10192000CE5CD040CE52DF4F9881C25DD040915006
:10193000CE52DF4F9883C25DD040CE52DF4FE88158
:10194000C25DD040EE2331F6CE018A569F4FCD5274
:10195000DF4F99838883C35DD04080EF90E0CB5206
:10196000DF4F99838883C55DD04098E0C952DF4F2F
:101970009883C75DD040CB52DF4FE881F981C55DC8
:10198000D0400080CB52DF4F88819981C55DD04027
:101990000196CB52DF4F99838883C55DD040CD52ED
:1019A000DF4FE881F981C35DD0400082CD52DF4F27
:1019B00088819981C35DD0400196CD52DF4F9983D4
:1019C0008883C35DD040C952DF4F9881C75DD04046
:1019D0009150C952DF4F9883C75DD040C952DF4F45
:1019E000E881C75DD040EE2331F6CE0182569F4F8D
:1019F000C852DF4F99838883C85DD04088EE90E05D
:101A0000C652DF4F99838883CA5DD04098E0C452A4
:101A1000DF4F9883CC5DD040C652DF4FE881F9811B
:101A2000CA5DD0400080C652DF4F88819981CA5D6F
:101A3000D0400196C652DF4F99838883CA5DD0405B
:101A4000C852DF4FE881F981C85DD0400082C8529A
:101A5000DF4F88819981C85DD0400196C852DF4F21
:101A600099838883C85DD040C452DF4F9881CC5D94
:101A7000D0409150C452DF4F9883CC5DD040C452C7
:101A8000DF4FE881CC5DD040EE2331F6CE018A55A0
:101A90009F4FC352DF4F99838883CD5DD04080EE46
:101AA00090E0C152DF4F99838883CF5DD04098E0AA
:101AB000CF51DF4F9883C15ED040C152DF4FE881E4
:101AC000F981CF5DD0400080C152DF4F888199817C
:101AD000CF5DD0400196C152DF4F99838883CF5D9F
:101AE000D040C352DF4FE881F981CD5DD040008204
:101AF000C352DF4F88819981CD5DD0400196C3529A
:101B0000DF4F99838883CD5DD040CF51DF4F9881DF
:101B1000C15ED0409150CF51DF4F9883C15ED0401D
:101B2000CF51DF4FE881C15ED040EE2331F6CE01C8
:101B300082559F4FCE51DF4F99838883C25ED0403C
:101B400088ED90E0CC51DF4F99838883C45ED0400C
:101B500098E0CA51DF4F9883C65ED040CC51DF4F2A
:101B6000E881F981C45ED0400080CC51DF4F88818C
:101B70009981C45ED0400196CC51DF4F9983888310
:101B8000C45ED040CE51DF4FE881F981C25ED040C3
:101B90000082CE51DF4F88819981C25ED04001968C
:101BA000CE51DF4F99838883C25ED040CA51DF4F48
:101BB0009881C65ED0409150CA51DF4F9883C65E6F
:101BC000D040CA51DF4FE881C65ED040EE2331F6E7
:101BD000CE018A549F4FC951DF4F99838883C75ED6
:101BE000D04080ED90E0C751DF4F99838883C95E74
:101BF000D04098E0C551DF4F9883CB5ED040C751AD
:101C0000DF4FE881F981C95ED0400080C751DF4FC6
:101C100088819981C95ED0400196C751DF4F998371
:101C20008883C95ED040C951DF4FE881F981C75E22
:101C3000D0400082C951DF4F88819981C75ED04072
:101C40000196C951DF4F99838883C75ED040C55143
:101C5000DF4F9881CB5ED0409150C551DF4F9883C4
:101C6000CB5ED040C551DF4FE881CB5ED040EE2344
:101C700031F6CE0182549F4FC451DF4F9983888340
:101C8000CC5ED04088EC90E0C251DF4F99838883CE
:101C9000CE5ED04098E0C051DF4F9883C05FD04007
:101CA000C251DF4FE881F981CE5ED0400080C25141
:101CB000DF4F88819981CE5ED0400196C251DF4FBF
:101CC00099838883CE5ED040C451DF4FE881F9818B
:101CD000CC5ED0400082C451DF4F88819981CC5EB8
:101CE000D0400196C451DF4F99838883CC5ED040A9
:101CF000C051DF4F9881C05FD0409150C051DF4F3D
:101D00009883C05FD040C051DF4FE881C05FD040B2
:101D1000EE2331F6CE018A539F4FCF50DF4F998388
:101D20008883C15FD04080EC90E0CD50DF4F998335
:101D30008883C35FD04098E0CB50DF4F9883C55F66
:101D4000D040CD50DF4FE881F981C35FD0400080A3
:101D5000CD50DF4F88819981C35FD0400196CD502F
:101D6000DF4F99838883C35FD040CF50DF4FE88136
:101D7000F981C15FD0400082CF50DF4F88819981C7
:101D8000C15FD0400196CF50DF4F99838883C15FF8
:101D9000D040CB50DF4F9881C55FD0409150CB50A1
:101DA000DF4F9883C55FD040CB50DF4FE881C55FE0
:101DB000D040EE2331F6FE01E357FF4F10820E9420
:101DC000260C0E94900682E060E00E94EA0780E60E
:101DD00090E00E942A0782E061E00E94EA0788E61C
:101DE00090E00E942A07CE0182579F4F60E040E0BA
:101DF00020E00E940A08FE01E357FF4F10827FC1D6
:101E0000CE0182569F4F62E040E021E00E940A0826
:101E1000FE01E757FF4F80E090E0A8ECB2E480833A
:101E20009183A283B3838E010B571F4FFE01E757A7
:101E3000FF4F608171818281938120E030E04AE729
:101E400055E40E941702DC01CB01F80180839183E5
:101E5000A283B383FE01EB57FF4F608171818281C2
:101E6000938120E030E040E85FE30E947103882323
:101E700044F4FE01ED57FF4F81E090E091838083B1
:101E800064C0FE01EB57FF4F6081718182819381B5
:101E900020E03FEF4FE757E40E94110318160CF0C3
:101EA00043C0FE01E757FF4F6081718182819381BA
:101EB00020E030E040E251E40E941702DC01CB0157
:101EC0008E010D571F4FBC01CD010E944100DC0166
:101ED000CB01F801918380831FC0FE01EF57FF4FB4
:101EE00080E991E091838083FE01EF57FF4F80816D
:101EF00091810197F1F7FE01EF57FF4F91838083A6
:101F0000DE01AD57BF4FFE01ED57FF4F808191813C
:101F1000019711969C938E93FE01ED57FF4F8081A0
:101F200091810097D1F627C08E010D571F4FFE01FA
:101F3000EB57FF4F60817181828193810E94410044
:101F4000DC01CB01F80191838083DE01A158BF4FF2
:101F5000FE01ED57FF4F808191818D939C93FE018F
:101F6000E158FF4F808191810197F1F7FE01E1581F
:101F7000FF4F91838083CE018A559F4F63E040E0FD
:101F800021E00E940A08FE01E558FF4F80E090E042
:101F9000A8ECB2E480839183A283B3838E010958B5
:101FA0001F4FFE01E558FF4F60817181828193814F
:101FB00020E030E04AE755E40E941702DC01CB0143
:101FC000F80180839183A283B383FE01E958FF4F18
:101FD000608171818281938120E030E040E85FE39D
:101FE0000E947103882344F4FE01EB58FF4F81E007
:101FF00090E09183808364C0FE01E958FF4F6081C7
:1020000071818281938120E03FEF4FE757E40E9486
:10201000110318160CF043C0FE01E558FF4F608114
:1020200071818281938120E030E040E251E40E949E
:102030001702DC01CB018E010B581F4FBC01CD01F3
:102040000E944100DC01CB01F801918380831FC015
:10205000FE01ED58FF4F80E991E091838083FE01FE
:10206000ED58FF4F808191810197F1F7FE01ED5806
:10207000FF4F91838083DE01AB58BF4FFE01EB58C9
:10208000FF4F80819181019711969C938E93FE0161
:10209000EB58FF4F808191810097D1F627C08E01C8
:1020A0000B581F4FFE01E958FF4F608171818281FB
:1020B00093810E944100DC01CB01F8019183808370
:1020C000DE01AF58BF4FFE01EB58FF4F8081918179
:1020D0008D939C93FE01EF58FF4F80819181019772
:1020E000F1F7FE01EF58FF4F91838083DE01A35784
:1020F000BF4FFE01E357FF4F80818F5F8C93FE013E
:10210000E357FF4F80818A3108F47ACE81E00E9444
:102110005A06CE0182579F4F60E040E020E00E94C7
:102120000A08CE018A569F4F61E040E021E00E94FC
:102130000A0882E060E00E94EA0785E790E00E94DA
:102140002A0782E061E00E94EA0780E890E00E94AE
:102150002A07FE01E357FF4F10823AC2CE01825593
:102160009F4F64E040E021E00E940A08FE01E3592D
:10217000FF4F80E090E0A8ECB2E480839183A283DB
:10218000B3838E0107591F4FFE01E359FF4F608152
:1021900071818281938120E030E04AE755E40E941A
:1021A0001702DC01CB01F80180839183A283B38302
:1021B000FE01E759FF4F608171818281938120E0A8
:1021C00030E040E85FE30E947103882344F4FE019D
:1021D000E959FF4F81E090E09183808364C0FE0164
:1021E000E759FF4F608171818281938120E03FEF49
:1021F0004FE757E40E94110318160CF043C0FE018C
:10220000E359FF4F608171818281938120E030E04A
:1022100040E251E40E941702DC01CB018E01095912
:102220001F4FBC01CD010E944100DC01CB01F80130
:10223000918380831FC0FE01EB59FF4F80E991E03D
:1022400091838083FE01EB59FF4F8081918101973B
:10225000F1F7FE01EB59FF4F91838083DE01A9590D
:10226000BF4FFE01E959FF4F80819181019711967F
:102270009C938E93FE01E959FF4F808191810097D5
:10228000D1F627C08E0109591F4FFE01E759FF4FB4
:1022900060817181828193810E944100DC01CB01C8
:1022A000F80191838083DE01AD59BF4FFE01E959EA
:1022B000FF4F808191818D939C93FE01ED59FF4FDB
:1022C000808191810197F1F7FE01ED59FF4F9183D4
:1022D0008083CE018A549F4F65E040E021E00E9458
:1022E0000A08FE01E15AFF4F80E090E0A8ECB2E45A
:1022F00080839183A283B3838E01055A1F4FFE0111
:10230000E15AFF4F608171818281938120E030E04A
:102310004AE755E40E941702DC01CB01F8018083F3
:102320009183A283B383FE01E55AFF4F60817181DF
:102330008281938120E030E040E85FE30E947103F6
:10234000882344F4FE01E75AFF4F81E090E0918337
:10235000808364C0FE01E55AFF4F608171818281F4
:10236000938120E03FEF4FE757E40E9411031816D6
:102370000CF043C0FE01E15AFF4F60817181828100
:10238000938120E030E040E251E40E941702DC013A
:10239000CB018E01075A1F4FBC01CD010E944100A5
:1023A000DC01CB01F801918380831FC0FE01E95A53
:1023B000FF4F80E991E091838083FE01E95AFF4F4E
:1023C000808191810197F1F7FE01E95AFF4F9183D6
:1023D0008083DE01A75ABF4FFE01E75AFF4F80817D
:1023E0009181019711969C938E93FE01E75AFF4FBE
:1023F000808191810097D1F627C08E01075A1F4F27
:10240000FE01E55AFF4F60817181828193810E94B4
:102410004100DC01CB01F80191838083DE01AB5ADE
:10242000BF4FFE01E75AFF4F808191818D939C93AE
:10243000FE01EB5AFF4F808191810197F1F7FE0178
:10244000EB5AFF4F91838083CE0182549F4F66E009
:1024500040E021E00E940A08FE01EF5AFF4F80E0B1
:1024600090E0A8ECB2E480839183A283B3838E01D1
:10247000035B1F4FFE01EF5AFF4F60817181828124
:10248000938120E030E04AE755E40E941702DC0126
:10249000CB01F80180839183A283B383FE01E35BC8
:1024A000FF4F608171818281938120E030E040E8BC
:1024B0005FE30E947103882344F4FE01E55BFF4F54
:1024C00081E090E09183808364C0FE01E35BFF4F75
:1024D000608171818281938120E03FEF4FE757E473
:1024E0000E94110318160CF043C0FE01EF5AFF4F73
:1024F000608171818281938120E030E040E251E48B
:102500000E941702DC01CB018E01055B1F4FBC014D
:10251000CD010E944100DC01CB01F8019183808351
:102520001FC0FE01E75BFF4F80E991E0918380834C
:10253000FE01E75BFF4F808191810197F1F7FE017A
:10254000E75BFF4F91838083DE01A55BBF4FFE01F8
:10255000E55BFF4F80819181019711969C938E934B
:10256000FE01E55BFF4F808191810097D1F627C086
:102570008E01055B1F4FFE01E35BFF4F60817181A0
:10258000828193810E944100DC01CB01F80191839B
:102590008083DE01A95BBF4FFE01E55BFF4F8081B9
:1025A00091818D939C93FE01E95BFF4F8081918126
:1025B0000197F1F7FE01E95BFF4F91838083DE0114
:1025C000A357BF4FFE01E357FF4F80818F5F8C936E
:1025D000FE01E357FF4F80818A3108F4BFCD81E0CF
:1025E0000E945A06CE0182579F4F60E040E020E0F3
:1025F0000E940A08CE018A569F4F61E040E021E028
:102600000E940A0885E060E00E94EA078BE890E0FB
:102610000E942A07FE01E357FF4F10823CC1CE0102
:1026200082579F4F60E040E020E00E940A08CE0100
:102630008A569F4F61E041E021E00E940A08FE01B6
:10264000ED5BFF4F80E090E0AAE7B3E480839183E5
:10265000A283B3838E01015C1F4FFE01ED5BFF4F30
:10266000608171818281938120E030E04AE755E406
:102670000E941702DC01CB01F80180839183A283C1
:10268000B383FE01FF96608171818281938120E096
:1026900030E040E85FE30E94710388232CF481E07E
:1026A00090E09EAF8DAF46C0FE01FF9660817181C4
:1026B0008281938120E03FEF4FE757E40E941103AE
:1026C000181664F5FE01ED5BFF4F60817181828118
:1026D000938120E030E040E251E40E941702DC01E7
:1026E000CB01BC01CD010E944100DC01CB019EAFBA
:1026F0008DAF0FC080E991E09CAF8BAF8BAD9CADEF
:102700000197F1F79CAF8BAF8DAD9EAD01979EAF5A
:102710008DAF8DAD9EAD009769F716C0FE01FF9697
:1027200060817181828193810E944100DC01CB0133
:102730009EAF8DAF8DAD9EAD9AAF89AF89AD9AAD8D
:102740000197F1F79AAF89AF80E060E00E94EA0755
:1027500080E20E94750681E061E00E94EA0780E263
:102760000E947506CE0182579F4F60E041E020E055
:102770000E940A08CE018A569F4F61E040E021E0A6
:102780000E940A0880E090E0AAE7B3E48DAB9EAB1C
:10279000AFABB8AF6DA97EA98FA998AD20E030E0AE
:1027A0004AE755E40E941702DC01CB0189AB9AABE2
:1027B000ABABBCAB69A97AA98BA99CA920E030E09E
:1027C00040E85FE30E94710388232CF481E090E0ED
:1027D00098AB8FA73FC069A97AA98BA99CA920E0D3
:1027E0003FEF4FE757E40E94110318164CF56DA90F
:1027F0007EA98FA998AD20E030E040E251E40E942C
:102800001702DC01CB01BC01CD010E944100DC01BB
:10281000CB0198AB8FA70FC080E991E09EA78DA751
:102820008DA59EA50197F1F79EA78DA78FA598A9C5
:10283000019798AB8FA78FA598A9009769F714C047
:1028400069A97AA98BA99CA90E944100DC01CB014E
:1028500098AB8FA78FA598A99CA78BA78BA59CA5A4
:102860000197F1F79CA78BA781E060E00E94EA073F
:1028700080E20E94750680E061E00E94EA0780E243
:102880000E947506DE01A357BF4FFE01E357FF4FBD
:1028900080818F5F8C93FE01E357FF4F80818B30E7
:1028A00008F4BDCE81E00E945A06CE0182579F4FA8
:1028B00060E046E020E00E940A08CE018A569F4F61
:1028C00061E046E021E00E940A0880E060E00E94AA
:1028D000EA0787E990E00E942A0780E061E00E9411
:1028E000EA078EE990E00E942A07FE01E357FF4FB6
:1028F00086E08083A5C0CE0182579F4FFE01E3573B
:10290000FF4F60E0408120E00E940A08CE018A5615
:102910009F4FFE01E357FF4F61E0408121E00E949D
:102920000A0880E090E0A8ECB2E48FA398A7A9A7DA
:10293000BAA76FA178A589A59AA520E030E04AE75B
:1029400055E40E941702DC01CB018BA39CA3ADA32D
:10295000BEA36BA17CA18DA19EA120E030E040E848
:102960005FE30E94710388232CF481E090E09AA336
:1029700089A33FC06BA17CA18DA19EA120E03FEF68
:102980004FE757E40E94110318164CF56FA178A584
:1029900089A59AA520E030E040E251E40E941702A8
:1029A000DC01CB01BC01CD010E944100DC01CB0167
:1029B0009AA389A30FC080E991E098A38F8F8F8D90
:1029C00098A10197F1F798A38F8F89A19AA10197F8
:1029D0009AA389A389A19AA1009769F714C06BA152
:1029E0007CA18DA19EA10E944100DC01CB019AA394
:1029F00089A389A19AA19E8F8D8F8D8D9E8D019720
:102A0000F1F79E8F8D8FFE01E357FF4F808160E0CD
:102A10000E94EA0780E20E947506FE01E357FF4F1D
:102A2000808161E00E94EA0780E20E947506DE0173
:102A3000A357BF4FFE01E357FF4F80818F5F8C93F9
:102A4000FE01E357FF4F8081803108F454CF81E0CD
:102A50000E945A0686E060E00E94EA0782EA90E05F
:102A60000E942A0786E061E00E94EA0788EA90E077
:102A70000E942A07CE018A539F4F67E040E020E082
:102A80000E940A0880E090E0AAEFB4E4898F9A8F50
:102A9000AB8FBC8F698D7A8D8B8D9C8D20E030E063
:102AA0004AE755E40E941702DC01CB018D8B9E8B17
:102AB000AF8BB88F6D897E898F89988D20E030E04B
:102AC00040E85FE30E94710388232CF481E090E0EA
:102AD0009C8B8B8B3FC06D897E898F89988D20E080
:102AE0003FEF4FE757E40E94110318164CF5698D2C
:102AF0007A8D8B8D9C8D20E030E040E251E40E9485
:102B00001702DC01CB01BC01CD010E944100DC01B8
:102B1000CB019C8B8B8B0FC080E991E09A8B898BCA
:102B200089899A890197F1F79A8B898B8B899C897E
:102B300001979C8B8B8B8B899C89009769F714C0BC
:102B40006D897E898F89988D0E944100DC01CB01BF
:102B50009C8B8B8B8B899C89988B8F878F85988991
:102B60000197F1F7988B8F8781E00E945A06CE017A
:102B70008A539F4F67E040E020E00E940A08CE01A0
:102B800082579F4F61E043E020E00E940A08CE0197
:102B90008A569F4F62E043E021E00E940A08FE014E
:102BA000E357FF4F83E08083B0C0FE01E357FF4F40
:102BB0008081825060E00E94EA078EE20E947506E2
:102BC000CE0182579F4FFE01E357FF4F60E04081E7
:102BD00020E00E940A08CE018A569F4FFE01E3576B
:102BE000FF4F61E0408121E00E940A0880E090E010
:102BF000A8ECB2E48B879C87AD87BE876B857C850C
:102C00008D859E8520E030E04AE755E40E9417025A
:102C1000DC01CB018F839887A987BA876F8178857C
:102C200089859A8520E030E040E85FE30E947103E7
:102C300088232CF481E090E09E838D833FC06F81D8
:102C4000788589859A8520E03FEF4FE757E40E9419
:102C5000110318164CF56B857C858D859E8520E0CB
:102C600030E040E251E40E941702DC01CB01BC01DC
:102C7000CD010E944100DC01CB019E838D830FC0FA
:102C800080E991E09C838B838B819C810197F1F794
:102C90009C838B838D819E8101979E838D838D8103
:102CA0009E81009769F714C06F81788589859A8520
:102CB0000E944100DC01CB019E838D838D819E812A
:102CC0009A83898389819A810197F1F79A8389830D
:102CD000FE01E357FF4F808160E00E94EA0780E237
:102CE0000E947506FE01E357FF4F808161E00E945C
:102CF000EA0780E20E947506DE01A357BF4FFE017E
:102D0000E357FF4F80818F5F8C93FE01E357FF4FA6
:102D10008081803108F449CF81E00E945A0685E025
:102D200060E00E94EA0780EB90E00E942A07FFCF54
:102D300097FB092E05260ED057FD04D014D00AD0DB
:102D4000001C38F450954095309521953F4F4F4FDA
:102D50005F4F0895F6F790958095709561957F4F38
:102D60008F4F9F4F0895A1E21A2EAA1BBB1BFD0196
:102D70000DC0AA1FBB1FEE1FFF1FA217B307E4075A
:102D8000F50720F0A21BB30BE40BF50B661F771FB2
:102D9000881F991F1A9469F7609570958095909592
:102DA0009B01AC01BD01CF0108952F923F924F923C
:102DB0005F926F927F928F929F92AF92BF92CF92CB
:102DC000DF92EF92FF920F931F93CF93DF93CDB7D4
:102DD000DEB7CA1BDB0B0FB6F894DEBF0FBECDBF4C
:102DE00009942A88398848885F846E847D848C841D
:102DF0009B84AA84B984C884DF80EE80FD800C8126
:102E00001B81AA81B981CE0FD11D0FB6F894DEBF08
:0C2E10000FBECDBFED010895F894FFCF78
:102E1C0048656C6C6F2E2E0049276D2048616D6FD4
:102E2C006B73686100492063616E20706C6179007E
:102E3C004261736B657462616C6C00492063616EF6
:102E4C002044616E636500492063616E20005275F9
:102E5C006E00446F6E2774004B696C6C206D6500BE
:102E6C0054484520454E440000000000000000007E
:102E7C000F1718180000000004041E0504011B00A5
:102E8C0004041F0405041B0004051E0504041B0098
:102E9C0004041C0704041B0004071C0404041B008A
:102EAC0004041F0404041B000E1F111B111B0E0035
:00000001FF
